{
  "contractName": "Crowdfunding",
  "abi": [
    {
      "inputs": [
        {
          "internalType": "uint256",
          "name": "",
          "type": "uint256"
        }
      ],
      "name": "campaigns",
      "outputs": [
        {
          "internalType": "address payable",
          "name": "creator",
          "type": "address"
        },
        {
          "internalType": "string",
          "name": "title",
          "type": "string"
        },
        {
          "internalType": "string",
          "name": "description",
          "type": "string"
        },
        {
          "internalType": "uint256",
          "name": "goal",
          "type": "uint256"
        },
        {
          "internalType": "uint256",
          "name": "deadline",
          "type": "uint256"
        },
        {
          "internalType": "string",
          "name": "image",
          "type": "string"
        },
        {
          "internalType": "uint256",
          "name": "raised",
          "type": "uint256"
        },
        {
          "internalType": "bool",
          "name": "complete",
          "type": "bool"
        }
      ],
      "stateMutability": "view",
      "type": "function",
      "constant": true
    },
    {
      "inputs": [],
      "name": "numCampaigns",
      "outputs": [
        {
          "internalType": "uint256",
          "name": "",
          "type": "uint256"
        }
      ],
      "stateMutability": "view",
      "type": "function",
      "constant": true
    },
    {
      "inputs": [
        {
          "internalType": "string",
          "name": "_title",
          "type": "string"
        },
        {
          "internalType": "string",
          "name": "_description",
          "type": "string"
        },
        {
          "internalType": "uint256",
          "name": "_goal",
          "type": "uint256"
        },
        {
          "internalType": "uint256",
          "name": "_deadline",
          "type": "uint256"
        },
        {
          "internalType": "string",
          "name": "_image",
          "type": "string"
        }
      ],
      "name": "createCampaign",
      "outputs": [
        {
          "internalType": "uint256",
          "name": "",
          "type": "uint256"
        }
      ],
      "stateMutability": "nonpayable",
      "type": "function"
    },
    {
      "inputs": [
        {
          "internalType": "uint256",
          "name": "_campaignIndex",
          "type": "uint256"
        }
      ],
      "name": "contribute",
      "outputs": [],
      "stateMutability": "payable",
      "type": "function",
      "payable": true
    },
    {
      "inputs": [
        {
          "internalType": "uint256",
          "name": "_campaignIndex",
          "type": "uint256"
        }
      ],
      "name": "getContribute",
      "outputs": [
        {
          "internalType": "address[]",
          "name": "",
          "type": "address[]"
        },
        {
          "internalType": "uint256[]",
          "name": "",
          "type": "uint256[]"
        }
      ],
      "stateMutability": "view",
      "type": "function",
      "constant": true
    },
    {
      "inputs": [],
      "name": "getCampaigns",
      "outputs": [
        {
          "internalType": "address[]",
          "name": "",
          "type": "address[]"
        },
        {
          "internalType": "string[]",
          "name": "",
          "type": "string[]"
        },
        {
          "internalType": "string[]",
          "name": "",
          "type": "string[]"
        },
        {
          "internalType": "uint256[]",
          "name": "",
          "type": "uint256[]"
        },
        {
          "internalType": "uint256[]",
          "name": "",
          "type": "uint256[]"
        },
        {
          "internalType": "string[]",
          "name": "",
          "type": "string[]"
        },
        {
          "internalType": "uint256[]",
          "name": "",
          "type": "uint256[]"
        },
        {
          "internalType": "bool[]",
          "name": "",
          "type": "bool[]"
        }
      ],
      "stateMutability": "view",
      "type": "function",
      "constant": true
    }
  ],
  "bytecode": "0x608060405234801561001057600080fd5b50611b93806100206000396000f3fe6080604052600436106100555760003560e01c8063141961bc1461005a5780632c0f7b6f1461009e578063a6b03633146100c9578063c1cbbca7146100fb578063d4e3dd6f14610117578063dd4bee2014610154575b600080fd5b34801561006657600080fd5b50610081600480360381019061007c9190610e54565b610192565b604051610095989796959493929190610f7c565b60405180910390f35b3480156100aa57600080fd5b506100b361039f565b6040516100c0919061100f565b60405180910390f35b3480156100d557600080fd5b506100de6103a5565b6040516100f2989796959493929190611382565b60405180910390f35b61011560048036038101906101109190610e54565b6109a9565b005b34801561012357600080fd5b5061013e6004803603810190610139919061156d565b610bb5565b60405161014b919061100f565b60405180910390f35b34801561016057600080fd5b5061017b60048036038101906101769190610e54565b610cf8565b60405161018992919061163c565b60405180910390f35b60016020528060005260406000206000915090508060000160009054906101000a900473ffffffffffffffffffffffffffffffffffffffff16908060010180546101db906116a2565b80601f0160208091040260200160405190810160405280929190818152602001828054610207906116a2565b80156102545780601f1061022957610100808354040283529160200191610254565b820191906000526020600020905b81548152906001019060200180831161023757829003601f168201915b505050505090806002018054610269906116a2565b80601f0160208091040260200160405190810160405280929190818152602001828054610295906116a2565b80156102e25780601f106102b7576101008083540402835291602001916102e2565b820191906000526020600020905b8154815290600101906020018083116102c557829003601f168201915b505050505090806003015490806004015490806005018054610303906116a2565b80601f016020809104026020016040519081016040528092919081815260200182805461032f906116a2565b801561037c5780601f106103515761010080835404028352916020019161037c565b820191906000526020600020905b81548152906001019060200180831161035f57829003601f168201915b50505050509080600601549080600a0160009054906101000a900460ff16905088565b60005481565b6060806060806060806060806000805467ffffffffffffffff8111156103ce576103cd611442565b5b6040519080825280602002602001820160405280156103fc5781602001602082028036833780820191505090505b5090506000805467ffffffffffffffff81111561041c5761041b611442565b5b60405190808252806020026020018201604052801561044f57816020015b606081526020019060019003908161043a5790505b5090506000805467ffffffffffffffff81111561046f5761046e611442565b5b6040519080825280602002602001820160405280156104a257816020015b606081526020019060019003908161048d5790505b5090506000805467ffffffffffffffff8111156104c2576104c1611442565b5b6040519080825280602002602001820160405280156104f05781602001602082028036833780820191505090505b5090506000805467ffffffffffffffff8111156105105761050f611442565b5b60405190808252806020026020018201604052801561053e5781602001602082028036833780820191505090505b5090506000805467ffffffffffffffff81111561055e5761055d611442565b5b60405190808252806020026020018201604052801561059157816020015b606081526020019060019003908161057c5790505b5090506000805467ffffffffffffffff8111156105b1576105b0611442565b5b6040519080825280602002602001820160405280156105df5781602001602082028036833780820191505090505b5090506000805467ffffffffffffffff8111156105ff576105fe611442565b5b60405190808252806020026020018201604052801561062d5781602001602082028036833780820191505090505b50905060005b60005481101561097e5760006001600083815260200190815260200160002090508060000160009054906101000a900473ffffffffffffffffffffffffffffffffffffffff168a838151811061068c5761068b6116d3565b5b602002602001019073ffffffffffffffffffffffffffffffffffffffff16908173ffffffffffffffffffffffffffffffffffffffff16815250508060010180546106d5906116a2565b80601f0160208091040260200160405190810160405280929190818152602001828054610701906116a2565b801561074e5780601f106107235761010080835404028352916020019161074e565b820191906000526020600020905b81548152906001019060200180831161073157829003601f168201915b5050505050898381518110610766576107656116d3565b5b6020026020010181905250806002018054610780906116a2565b80601f01602080910402602001604051908101604052809291908181526020018280546107ac906116a2565b80156107f95780601f106107ce576101008083540402835291602001916107f9565b820191906000526020600020905b8154815290600101906020018083116107dc57829003601f168201915b5050505050888381518110610811576108106116d3565b5b60200260200101819052508060030154878381518110610834576108336116d3565b5b6020026020010181815250508060040154868381518110610858576108576116d3565b5b602002602001018181525050806005018054610873906116a2565b80601f016020809104026020016040519081016040528092919081815260200182805461089f906116a2565b80156108ec5780601f106108c1576101008083540402835291602001916108ec565b820191906000526020600020905b8154815290600101906020018083116108cf57829003601f168201915b5050505050858381518110610904576109036116d3565b5b60200260200101819052508060060154848381518110610927576109266116d3565b5b60200260200101818152505080600a0160009054906101000a900460ff16838381518110610958576109576116d3565b5b60200260200101901515908115158152505050808061097690611731565b915050610633565b5087878787878787879f509f509f509f509f509f509f509f5050505050505050509091929394959697565b600060016000838152602001908152602001600020905080600a0160009054906101000a900460ff1615610a12576040517f08c379a0000000000000000000000000000000000000000000000000000000008152600401610a09906117c5565b60405180910390fd5b80600801339080600181540180825580915050600190039060005260206000200160009091909190916101000a81548173ffffffffffffffffffffffffffffffffffffffff021916908373ffffffffffffffffffffffffffffffffffffffff16021790555080600901349080600181540180825580915050600190039060005260206000200160009091909190915055348160070160003373ffffffffffffffffffffffffffffffffffffffff1673ffffffffffffffffffffffffffffffffffffffff1681526020019081526020016000206000828254610af391906117e5565b9250508190555034816006016000828254610b0e91906117e5565b925050819055508060030154816006015410610bb157600181600a0160006101000a81548160ff0219169083151502179055508060000160009054906101000a900473ffffffffffffffffffffffffffffffffffffffff1673ffffffffffffffffffffffffffffffffffffffff166108fc82600601549081150290604051600060405180830381858888f19350505050158015610baf573d6000803e3d6000fd5b505b5050565b6000806001600080548152602001908152602001600020905042816004015410610c14576040517f08c379a0000000000000000000000000000000000000000000000000000000008152600401610c0b9061188b565b60405180910390fd5b338160000160006101000a81548173ffffffffffffffffffffffffffffffffffffffff021916908373ffffffffffffffffffffffffffffffffffffffff16021790555086816001019081610c689190611a57565b5085816002019081610c7a9190611a57565b5084816003018190555083816004018190555082816005019081610c9e9190611a57565b5060008160060181905550600081600a0160006101000a81548160ff021916908315150217905550600080815480929190610cd890611731565b91905055506001600054610cec9190611b29565b91505095945050505050565b606080600160008481526020019081526020016000206008016001600085815260200190815260200160002060090181805480602002602001604051908101604052809291908181526020018280548015610da857602002820191906000526020600020905b8160009054906101000a900473ffffffffffffffffffffffffffffffffffffffff1673ffffffffffffffffffffffffffffffffffffffff1681526020019060010190808311610d5e575b5050505050915080805480602002602001604051908101604052809291908181526020018280548015610dfa57602002820191906000526020600020905b815481526020019060010190808311610de6575b5050505050905091509150915091565b6000604051905090565b600080fd5b600080fd5b6000819050919050565b610e3181610e1e565b8114610e3c57600080fd5b50565b600081359050610e4e81610e28565b92915050565b600060208284031215610e6a57610e69610e14565b5b6000610e7884828501610e3f565b91505092915050565b600073ffffffffffffffffffffffffffffffffffffffff82169050919050565b6000610eac82610e81565b9050919050565b610ebc81610ea1565b82525050565b600081519050919050565b600082825260208201905092915050565b60005b83811015610efc578082015181840152602081019050610ee1565b60008484015250505050565b6000601f19601f8301169050919050565b6000610f2482610ec2565b610f2e8185610ecd565b9350610f3e818560208601610ede565b610f4781610f08565b840191505092915050565b610f5b81610e1e565b82525050565b60008115159050919050565b610f7681610f61565b82525050565b600061010082019050610f92600083018b610eb3565b8181036020830152610fa4818a610f19565b90508181036040830152610fb88189610f19565b9050610fc76060830188610f52565b610fd46080830187610f52565b81810360a0830152610fe68186610f19565b9050610ff560c0830185610f52565b61100260e0830184610f6d565b9998505050505050505050565b60006020820190506110246000830184610f52565b92915050565b600081519050919050565b600082825260208201905092915050565b6000819050602082019050919050565b600061106182610e81565b9050919050565b61107181611056565b82525050565b60006110838383611068565b60208301905092915050565b6000602082019050919050565b60006110a78261102a565b6110b18185611035565b93506110bc83611046565b8060005b838110156110ed5781516110d48882611077565b97506110df8361108f565b9250506001810190506110c0565b5085935050505092915050565b600081519050919050565b600082825260208201905092915050565b6000819050602082019050919050565b600082825260208201905092915050565b600061114282610ec2565b61114c8185611126565b935061115c818560208601610ede565b61116581610f08565b840191505092915050565b600061117c8383611137565b905092915050565b6000602082019050919050565b600061119c826110fa565b6111a68185611105565b9350836020820285016111b885611116565b8060005b858110156111f457848403895281516111d58582611170565b94506111e083611184565b925060208a019950506001810190506111bc565b50829750879550505050505092915050565b600081519050919050565b600082825260208201905092915050565b6000819050602082019050919050565b61123b81610e1e565b82525050565b600061124d8383611232565b60208301905092915050565b6000602082019050919050565b600061127182611206565b61127b8185611211565b935061128683611222565b8060005b838110156112b757815161129e8882611241565b97506112a983611259565b92505060018101905061128a565b5085935050505092915050565b600081519050919050565b600082825260208201905092915050565b6000819050602082019050919050565b6112f981610f61565b82525050565b600061130b83836112f0565b60208301905092915050565b6000602082019050919050565b600061132f826112c4565b61133981856112cf565b9350611344836112e0565b8060005b8381101561137557815161135c88826112ff565b975061136783611317565b925050600181019050611348565b5085935050505092915050565b600061010082019050818103600083015261139d818b61109c565b905081810360208301526113b1818a611191565b905081810360408301526113c58189611191565b905081810360608301526113d98188611266565b905081810360808301526113ed8187611266565b905081810360a08301526114018186611191565b905081810360c08301526114158185611266565b905081810360e08301526114298184611324565b90509998505050505050505050565b600080fd5b600080fd5b7f4e487b7100000000000000000000000000000000000000000000000000000000600052604160045260246000fd5b61147a82610f08565b810181811067ffffffffffffffff8211171561149957611498611442565b5b80604052505050565b60006114ac610e0a565b90506114b88282611471565b919050565b600067ffffffffffffffff8211156114d8576114d7611442565b5b6114e182610f08565b9050602081019050919050565b82818337600083830152505050565b600061151061150b846114bd565b6114a2565b90508281526020810184848401111561152c5761152b61143d565b5b6115378482856114ee565b509392505050565b600082601f83011261155457611553611438565b5b81356115648482602086016114fd565b91505092915050565b600080600080600060a0868803121561158957611588610e14565b5b600086013567ffffffffffffffff8111156115a7576115a6610e19565b5b6115b38882890161153f565b955050602086013567ffffffffffffffff8111156115d4576115d3610e19565b5b6115e08882890161153f565b94505060406115f188828901610e3f565b935050606061160288828901610e3f565b925050608086013567ffffffffffffffff81111561162357611622610e19565b5b61162f8882890161153f565b9150509295509295909350565b60006040820190508181036000830152611656818561109c565b9050818103602083015261166a8184611266565b90509392505050565b7f4e487b7100000000000000000000000000000000000000000000000000000000600052602260045260246000fd5b600060028204905060018216806116ba57607f821691505b6020821081036116cd576116cc611673565b5b50919050565b7f4e487b7100000000000000000000000000000000000000000000000000000000600052603260045260246000fd5b7f4e487b7100000000000000000000000000000000000000000000000000000000600052601160045260246000fd5b600061173c82610e1e565b91507fffffffffffffffffffffffffffffffffffffffffffffffffffffffffffffffff820361176e5761176d611702565b5b600182019050919050565b7f43616d706169676e20616c726561647920636f6d706c6574652e000000000000600082015250565b60006117af601a83610ecd565b91506117ba82611779565b602082019050919050565b600060208201905081810360008301526117de816117a2565b9050919050565b60006117f082610e1e565b91506117fb83610e1e565b925082820190508082111561181357611812611702565b5b92915050565b7f54686520646561646c696e206d7573742062652061206461746520696e20746860008201527f65206675747572652e0000000000000000000000000000000000000000000000602082015250565b6000611875602983610ecd565b915061188082611819565b604082019050919050565b600060208201905081810360008301526118a481611868565b9050919050565b60008190508160005260206000209050919050565b60006020601f8301049050919050565b600082821b905092915050565b60006008830261190d7fffffffffffffffffffffffffffffffffffffffffffffffffffffffffffffffff826118d0565b61191786836118d0565b95508019841693508086168417925050509392505050565b6000819050919050565b600061195461194f61194a84610e1e565b61192f565b610e1e565b9050919050565b6000819050919050565b61196e83611939565b61198261197a8261195b565b8484546118dd565b825550505050565b600090565b61199761198a565b6119a2818484611965565b505050565b5b818110156119c6576119bb60008261198f565b6001810190506119a8565b5050565b601f821115611a0b576119dc816118ab565b6119e5846118c0565b810160208510156119f4578190505b611a08611a00856118c0565b8301826119a7565b50505b505050565b600082821c905092915050565b6000611a2e60001984600802611a10565b1980831691505092915050565b6000611a478383611a1d565b9150826002028217905092915050565b611a6082610ec2565b67ffffffffffffffff811115611a7957611a78611442565b5b611a8382546116a2565b611a8e8282856119ca565b600060209050601f831160018114611ac15760008415611aaf578287015190505b611ab98582611a3b565b865550611b21565b601f198416611acf866118ab565b60005b82811015611af757848901518255600182019150602085019450602081019050611ad2565b86831015611b145784890151611b10601f891682611a1d565b8355505b6001600288020188555050505b505050505050565b6000611b3482610e1e565b9150611b3f83610e1e565b9250828203905081811115611b5757611b56611702565b5b9291505056fea26469706673582212201d0e52aa658e3ef31175d075ea66bb13cbc2860895652433b9c8d7cb96c4a2a864736f6c63430008110033",
  "immutableReferences": {},
  "source": "// SPDX-License-Identifier: MIT\r\npragma solidity ^0.8.0;\r\n\r\ncontract Crowdfunding {\r\n    struct Campaign {\r\n        address payable creator;\r\n        string title;\r\n        string description;\r\n        uint goal;\r\n        uint deadline;\r\n        string image;\r\n        uint raised;\r\n        mapping(address => uint) contributions;\r\n        address[] donators;\r\n        uint[] donations;\r\n        bool complete;\r\n\r\n    }\r\n    \r\n    uint public numCampaigns;\r\n\r\n    mapping (uint => Campaign) public campaigns;\r\n    \r\n    function createCampaign(string memory _title, string memory _description, uint _goal,\r\n     uint _deadline, string memory _image) public returns(uint){\r\n        Campaign storage c = campaigns[numCampaigns];\r\n\r\n        require(c.deadline < block.timestamp, \"The deadlin must be a date in the future.\");\r\n\r\n        c.creator = payable(msg.sender);\r\n        c.title = _title;\r\n        c.description = _description;\r\n        c.goal = _goal;\r\n        c.deadline = _deadline;\r\n        c.image = _image;\r\n        c.raised = 0 ;\r\n        c.complete = false;\r\n\r\n        numCampaigns++;\r\n\r\n        return numCampaigns -1;\r\n        }\r\n    \r\n    function contribute(uint _campaignIndex) public payable {\r\n        Campaign storage campaign = campaigns[_campaignIndex];\r\n        require(!campaign.complete, \"Campaign already complete.\");\r\n        campaign.donators.push(msg.sender);\r\n        campaign.donations.push(msg.value);\r\n        campaign.contributions[msg.sender] += msg.value;\r\n        campaign.raised += msg.value;\r\n        if (campaign.raised >= campaign.goal) {\r\n            campaign.complete = true;\r\n            campaign.creator.transfer(campaign.raised);\r\n        }\r\n    }\r\n\r\n    function getContribute(uint _campaignIndex) view public returns (address[] memory, uint[] memory){\r\n        return (campaigns[_campaignIndex].donators, campaigns[_campaignIndex].donations);\r\n    }\r\n\r\n    // function getCampaigns() public view returns (Campaign[] memory){\r\n    //     Campaign[] memory allCampaigns = new Campaign[](numCampaigns);\r\n\r\n    //     for (uint i = 0; i < numCampaigns; i++){\r\n    //         Campaign storage _campaign = campaigns[i];\r\n    //         allCampaigns[i] = _campaign;\r\n    //     }\r\n    //         return allCampaigns;\r\n    //     }\r\n    \r\n    function getCampaigns() view public returns (address[] memory, string[] memory, string[] memory, uint[] memory, uint[] memory, string[] memory, uint[] memory, bool[] memory) {\r\n        address[] memory creators = new address[](numCampaigns);\r\n        string[] memory titles = new string[](numCampaigns);\r\n        string[] memory descriptions = new string[](numCampaigns);\r\n        uint[] memory goals = new uint[](numCampaigns);\r\n        uint[] memory deadlines = new uint[](numCampaigns);\r\n        string[] memory images = new string[](numCampaigns);\r\n        uint[] memory raisedAmounts = new uint[](numCampaigns);\r\n        bool[] memory isComplete = new bool[](numCampaigns);\r\n        \r\n        for (uint i = 0; i < numCampaigns; i++) {\r\n            Campaign storage campaign = campaigns[i];\r\n            creators[i] = campaign.creator;\r\n            titles[i] = campaign.title;\r\n            descriptions[i] = campaign.description;\r\n            goals[i] = campaign.goal;\r\n            deadlines[i] = campaign.deadline;\r\n            images[i] = campaign.image;\r\n            raisedAmounts[i] = campaign.raised;\r\n            isComplete[i] = campaign.complete;\r\n        }\r\n        \r\n        return (creators, titles, descriptions, goals, deadlines, images, raisedAmounts, isComplete);\r\n    }\r\n\r\n\r\n    // function withdraw(uint _campaignIndex) public {\r\n    //     Campaign storage campaign = campaigns[_campaignIndex];\r\n    //     require(campaign.complete == false, \"Campaign already complete.\");\r\n    //     //uint amount = campaign.contributions[msg.sender];\r\n    //     require(amount > 0, \"No contributions found.\");\r\n    //     campaign.contributions[msg.sender] = 0;\r\n    //     campaign.raised -= amount;\r\n    //     payable(msg.sender).transfer(amount);\r\n    // }\r\n}\r\n\r\n//  \r\n//truffle migrate --reset \r\n//     \r\n//truffle console\r\n//  \r\n//const instance = await Crowdfunding.deployed()\r\n\r\n//instance.createCampaign(\"A\",\"aa\",\"50\",\"6\",\"aaaa\", {from: accounts[0]})\r\n//instance.createCampaign(\"B\",\"bb\",\"40\",\"5\",\"bbbb\", {from: accounts[1]})\r\n//instance.getCampaigns()\r\n\r\n//instance.contribute(\"1\",{value:\"500000000000000000\", from: accounts[1]})\r\n//instance.getContribute(\"1\")\r\n",
  "sourcePath": "C:\\Users\\danie\\OneDrive\\\\tech23\\web3test\\contracts\\crowdfunding.sol",
  "compiler": {
    "name": "solc",
    "version": "0.8.17+commit.8df45f5f.Emscripten.clang"
  },
  "schemaVersion": "3.4.11",
  "updatedAt": "2023-03-13T08:33:55.269Z",
  "networkType": "ethereum",
  "devdoc": {
    "kind": "dev",
    "methods": {},
    "version": 1
  },
  "userdoc": {
    "kind": "user",
    "methods": {},
    "version": 1
  }
}