{
  "contractName": "Simplebank",
  "abi": [
    {
      "inputs": [],
      "stateMutability": "nonpayable",
      "type": "constructor"
    },
    {
      "inputs": [],
      "name": "numberOfFunders",
      "outputs": [
        {
          "internalType": "uint256",
          "name": "",
          "type": "uint256"
        }
      ],
      "stateMutability": "view",
      "type": "function",
      "constant": true
    },
    {
      "inputs": [],
      "name": "owner",
      "outputs": [
        {
          "internalType": "address",
          "name": "",
          "type": "address"
        }
      ],
      "stateMutability": "view",
      "type": "function",
      "constant": true
    },
    {
      "inputs": [
        {
          "internalType": "address",
          "name": "newOwner",
          "type": "address"
        }
      ],
      "name": "transferOwnership",
      "outputs": [],
      "stateMutability": "nonpayable",
      "type": "function"
    },
    {
      "inputs": [],
      "name": "addFunds",
      "outputs": [],
      "stateMutability": "payable",
      "type": "function",
      "payable": true
    },
    {
      "inputs": [],
      "name": "getAllFunders",
      "outputs": [
        {
          "internalType": "address[]",
          "name": "",
          "type": "address[]"
        }
      ],
      "stateMutability": "view",
      "type": "function",
      "constant": true
    },
    {
      "inputs": [],
      "name": "valueOfFunders",
      "outputs": [
        {
          "internalType": "uint256[]",
          "name": "",
          "type": "uint256[]"
        }
      ],
      "stateMutability": "view",
      "type": "function",
      "constant": true
    },
    {
      "inputs": [
        {
          "internalType": "uint256",
          "name": "withdrawAmount",
          "type": "uint256"
        }
      ],
      "name": "withdraw",
      "outputs": [],
      "stateMutability": "nonpayable",
      "type": "function"
    }
  ],
  "bytecode": "0x608060405234801561001057600080fd5b5033600460006101000a81548173ffffffffffffffffffffffffffffffffffffffff021916908373ffffffffffffffffffffffffffffffffffffffff160217905550610b6a806100616000396000f3fe6080604052600436106100705760003560e01c80638da5cb5b1161004e5780638da5cb5b146100f4578063a26759cb1461011f578063dc79a7fc14610129578063f2fde38b1461015457610070565b80632e1a7d4d146100755780636fbbb55d1461009e578063776f8ba1146100c9575b600080fd5b34801561008157600080fd5b5061009c60048036038101906100979190610684565b61017d565b005b3480156100aa57600080fd5b506100b3610269565b6040516100c091906107a1565b60405180910390f35b3480156100d557600080fd5b506100de610362565b6040516100eb9190610881565b60405180910390f35b34801561010057600080fd5b5061010961040d565b60405161011691906108b2565b60405180910390f35b610127610433565b005b34801561013557600080fd5b5061013e61056f565b60405161014b91906108dc565b60405180910390f35b34801561016057600080fd5b5061017b60048036038101906101769190610923565b610575565b005b670de0b6b3a76400008110806101e05750600460009054906101000a900473ffffffffffffffffffffffffffffffffffffffff1673ffffffffffffffffffffffffffffffffffffffff163373ffffffffffffffffffffffffffffffffffffffff16145b61021f576040517f08c379a0000000000000000000000000000000000000000000000000000000008152600401610216906109d3565b60405180910390fd5b3373ffffffffffffffffffffffffffffffffffffffff166108fc829081150290604051600060405180830381858888f19350505050158015610265573d6000803e3d6000fd5b5050565b60606000805467ffffffffffffffff811115610288576102876109f3565b5b6040519080825280602002602001820160405280156102b65781602001602082028036833780820191505090505b50905060005b60005481101561035a576002600082815260200190815260200160002060009054906101000a900473ffffffffffffffffffffffffffffffffffffffff1682828151811061030d5761030c610a22565b5b602002602001019073ffffffffffffffffffffffffffffffffffffffff16908173ffffffffffffffffffffffffffffffffffffffff1681525050808061035290610a80565b9150506102bc565b508091505090565b60606000805467ffffffffffffffff811115610381576103806109f3565b5b6040519080825280602002602001820160405280156103af5781602001602082028036833780820191505090505b50905060005b6000548110156104055760036000828152602001908152602001600020548282815181106103e6576103e5610a22565b5b60200260200101818152505080806103fd90610a80565b9150506103b5565b508091505090565b600460009054906101000a900473ffffffffffffffffffffffffffffffffffffffff1681565b60003390506000349050600160008373ffffffffffffffffffffffffffffffffffffffff1673ffffffffffffffffffffffffffffffffffffffff16815260200190815260200160002060009054906101000a900460ff1661056b5760008060008154809291906104a290610a80565b91905055905060018060008573ffffffffffffffffffffffffffffffffffffffff1673ffffffffffffffffffffffffffffffffffffffff16815260200190815260200160002060006101000a81548160ff021916908315150217905550826002600083815260200190815260200160002060006101000a81548173ffffffffffffffffffffffffffffffffffffffff021916908373ffffffffffffffffffffffffffffffffffffffff160217905550816003600083815260200190815260200160002081905550505b5050565b60005481565b600460009054906101000a900473ffffffffffffffffffffffffffffffffffffffff1673ffffffffffffffffffffffffffffffffffffffff163373ffffffffffffffffffffffffffffffffffffffff1614610605576040517f08c379a00000000000000000000000000000000000000000000000000000000081526004016105fc90610b14565b60405180910390fd5b80600460006101000a81548173ffffffffffffffffffffffffffffffffffffffff021916908373ffffffffffffffffffffffffffffffffffffffff16021790555050565b600080fd5b6000819050919050565b6106618161064e565b811461066c57600080fd5b50565b60008135905061067e81610658565b92915050565b60006020828403121561069a57610699610649565b5b60006106a88482850161066f565b91505092915050565b600081519050919050565b600082825260208201905092915050565b6000819050602082019050919050565b600073ffffffffffffffffffffffffffffffffffffffff82169050919050565b6000610708826106dd565b9050919050565b610718816106fd565b82525050565b600061072a838361070f565b60208301905092915050565b6000602082019050919050565b600061074e826106b1565b61075881856106bc565b9350610763836106cd565b8060005b8381101561079457815161077b888261071e565b975061078683610736565b925050600181019050610767565b5085935050505092915050565b600060208201905081810360008301526107bb8184610743565b905092915050565b600081519050919050565b600082825260208201905092915050565b6000819050602082019050919050565b6107f88161064e565b82525050565b600061080a83836107ef565b60208301905092915050565b6000602082019050919050565b600061082e826107c3565b61083881856107ce565b9350610843836107df565b8060005b8381101561087457815161085b88826107fe565b975061086683610816565b925050600181019050610847565b5085935050505092915050565b6000602082019050818103600083015261089b8184610823565b905092915050565b6108ac816106fd565b82525050565b60006020820190506108c760008301846108a3565b92915050565b6108d68161064e565b82525050565b60006020820190506108f160008301846108cd565b92915050565b610900816106fd565b811461090b57600080fd5b50565b60008135905061091d816108f7565b92915050565b60006020828403121561093957610938610649565b5b60006109478482850161090e565b91505092915050565b600082825260208201905092915050565b7f596f752063616e2774207769746864726177206d6f7265207468656e2031206560008201527f7468657200000000000000000000000000000000000000000000000000000000602082015250565b60006109bd602483610950565b91506109c882610961565b604082019050919050565b600060208201905081810360008301526109ec816109b0565b9050919050565b7f4e487b7100000000000000000000000000000000000000000000000000000000600052604160045260246000fd5b7f4e487b7100000000000000000000000000000000000000000000000000000000600052603260045260246000fd5b7f4e487b7100000000000000000000000000000000000000000000000000000000600052601160045260246000fd5b6000610a8b8261064e565b91507fffffffffffffffffffffffffffffffffffffffffffffffffffffffffffffffff8203610abd57610abc610a51565b5b600182019050919050565b7f4f6e6c7920746865206f776e65722063616e20646f2074686174000000000000600082015250565b6000610afe601a83610950565b9150610b0982610ac8565b602082019050919050565b60006020820190508181036000830152610b2d81610af1565b905091905056fea26469706673582212200f30e57483c1b0b1bb5e517acd9a086c3d8ab65decfd616f3351769905cb7ac264736f6c63430008110033",
  "immutableReferences": {},
  "source": "// SPDX-License-Identifier: MIT\r\npragma solidity >=0.4.22 <0.9.0;\r\n \r\n\r\ncontract Simplebank {\r\n  uint public numberOfFunders; //        0\r\n  mapping(address => bool) private funders; //need the boolian for the if in line 11\r\n  mapping(uint => address) private lutFunders; //lookup for the boolian mapping\r\n  mapping(uint=>uint) private fundersValue;\r\n  \r\n  address public owner;\r\n\r\n  constructor (){  //    \r\n   owner  =  msg.sender; //       \r\n  }//         \r\n\r\n  modifier onlyOwner(){ //         \r\n    require(msg.sender == owner,\"Only the owner can do that\");\r\n    _; //   \r\n  }\r\n\r\nfunction transferOwnership(address newOwner) external onlyOwner { //           \r\n  owner = newOwner;\r\n}\r\n\r\n\r\n  function addFunds() external payable{ //     \r\n      address funder = msg.sender;\r\n      uint value = msg.value;\r\n      if(!funders[funder]){ //     \r\n        uint index = numberOfFunders++; //    1\r\n//      0  1         \r\n        funders[funder] = true; //      \r\n        lutFunders[index] = funder;\r\n        fundersValue[index]= value;\r\n        //     \r\n    }\r\n\r\n }\r\n\r\nfunction getAllFunders() external view returns(address[] memory) { //     ,               \r\n//   \r\n  address[] memory _funders = new address[](numberOfFunders);  //    \r\n  for(uint i=0;i<numberOfFunders;i++){\r\n    _funders[i] = lutFunders[i]; //      \r\n  }\r\n  return _funders;\r\n  }\r\n\r\nfunction valueOfFunders() external view returns(uint[] memory){\r\n  uint[] memory _value = new uint[](numberOfFunders);\r\n  for(uint i=0;i<numberOfFunders;i++){\r\n    _value[i] = fundersValue[i]; \r\n  }\r\n  return _value;\r\n}\r\n\r\n\r\nfunction withdraw(uint withdrawAmount) external  {\r\n  require(withdrawAmount < 1000000000000000000 || msg.sender == owner, \"You can't withdraw more then 1 ether\"); //        1 \r\n //        \r\n  payable (msg.sender).transfer(withdrawAmount);  //   \r\n}\r\n\r\n\r\n\r\n\r\n\r\n}  \r\n//  \r\n//truffle migrate --reset \r\n//     \r\n//truffle console\r\n//  \r\n//const instance = await Simplebank.deployed()\r\n\r\n// \r\n//instance.addFunds({value:\"500000000000000000\", from: accounts[0]}) //      0  \r\n//instance.addFunds({value:\"500000000000000000\", from: accounts[1]}) //     1  \r\n\r\n// \r\n//instance.getAllFunders()\r\n//instance.valueOfFunders()\r\n\r\n//\r\n//instance.withdraw(\"1000000000000000000\", {from: accounts[0]})\r\n\r\n\r\n// \r\n//instance.transferOwnership(\"0x346861bd8A030B84E0Afc48d54f70f40B8d780d0\")",
  "sourcePath": "C:\\Users\\danie\\OneDrive\\\\tech23\\web3test\\contracts\\Simplebank.sol",
  "compiler": {
    "name": "solc",
    "version": "0.8.17+commit.8df45f5f.Emscripten.clang"
  },
  "schemaVersion": "3.4.11",
  "updatedAt": "2023-03-13T08:33:58.264Z",
  "networkType": "ethereum",
  "devdoc": {
    "kind": "dev",
    "methods": {},
    "version": 1
  },
  "userdoc": {
    "kind": "user",
    "methods": {},
    "version": 1
  }
}